{
  "address": "0x5101aB08b5097bb6bb46aBF51f59a34ede459094",
  "abi": [
    {
      "anonymous": false,
      "inputs": [
        {
          "indexed": true,
          "internalType": "address",
          "name": "previousOwner",
          "type": "address"
        },
        {
          "indexed": true,
          "internalType": "address",
          "name": "newOwner",
          "type": "address"
        }
      ],
      "name": "OwnershipTransferred",
      "type": "event"
    },
    {
      "inputs": [],
      "name": "distributeFees",
      "outputs": [],
      "stateMutability": "nonpayable",
      "type": "function"
    },
    {
      "inputs": [],
      "name": "infinity",
      "outputs": [
        {
          "internalType": "contract IInfinityProtocol",
          "name": "",
          "type": "address"
        }
      ],
      "stateMutability": "view",
      "type": "function"
    },
    {
      "inputs": [],
      "name": "initialized",
      "outputs": [
        {
          "internalType": "bool",
          "name": "",
          "type": "bool"
        }
      ],
      "stateMutability": "view",
      "type": "function"
    },
    {
      "inputs": [],
      "name": "owner",
      "outputs": [
        {
          "internalType": "address",
          "name": "",
          "type": "address"
        }
      ],
      "stateMutability": "view",
      "type": "function"
    },
    {
      "inputs": [],
      "name": "recipients",
      "outputs": [
        {
          "internalType": "address",
          "name": "liquidVault",
          "type": "address"
        },
        {
          "internalType": "address",
          "name": "secondaryAddress",
          "type": "address"
        },
        {
          "internalType": "uint256",
          "name": "liquidVaultShare",
          "type": "uint256"
        },
        {
          "internalType": "uint256",
          "name": "burnPercentage",
          "type": "uint256"
        }
      ],
      "stateMutability": "view",
      "type": "function"
    },
    {
      "inputs": [],
      "name": "renounceOwnership",
      "outputs": [],
      "stateMutability": "nonpayable",
      "type": "function"
    },
    {
      "inputs": [
        {
          "internalType": "address",
          "name": "_infinity",
          "type": "address"
        },
        {
          "internalType": "address",
          "name": "_vault",
          "type": "address"
        },
        {
          "internalType": "address",
          "name": "_secondaryAddress",
          "type": "address"
        },
        {
          "internalType": "uint256",
          "name": "_liquidVaultShare",
          "type": "uint256"
        },
        {
          "internalType": "uint256",
          "name": "_burnPercentage",
          "type": "uint256"
        }
      ],
      "name": "seed",
      "outputs": [],
      "stateMutability": "nonpayable",
      "type": "function"
    },
    {
      "inputs": [
        {
          "internalType": "address",
          "name": "newOwner",
          "type": "address"
        }
      ],
      "name": "transferOwnership",
      "outputs": [],
      "stateMutability": "nonpayable",
      "type": "function"
    }
  ],
  "transactionHash": "0xa2250d9af6f3d661df81cd0ac2b5f60e3c122373a42a1055e31e558b2b8c256d",
  "args": [],
  "solcInputHash": "50935558cf5835f525f697d3157617bd",
  "bytecode": "0x608060405234801561001057600080fd5b50600061001b61006a565b600080546001600160a01b0319166001600160a01b0383169081178255604051929350917f8be0079c531659141344cd1fd0a4f28419497f9722a3daafe3b4186f6b6457e0908290a35061006e565b3390565b610ad08061007d6000396000f3fe608060405234801561001057600080fd5b50600436106100885760003560e01c80638da5cb5b1161005b5780638da5cb5b1461012f578063bb57ad2014610153578063befe0e791461015b578063f2fde38b1461016357610088565b80630e57d4ce1461008d578063158ef93e146100c7578063715018a6146100e35780637a0f6020146100ed575b600080fd5b610095610189565b604080516001600160a01b03958616815293909416602084015282840191909152606082015290519081900360800190f35b6100cf6101a8565b604080519115158252519081900360200190f35b6100eb6101b1565b005b6100eb600480360360a081101561010357600080fd5b506001600160a01b0381358116916020810135821691604082013516906060810135906080013561026f565b610137610384565b604080516001600160a01b039092168252519081900360200190f35b6100eb610393565b6101376106c7565b6100eb6004803603602081101561017957600080fd5b50356001600160a01b03166106d6565b6002546003546004546005546001600160a01b03938416939092169184565b60065460ff1681565b6101b96107ea565b6001600160a01b03166101ca610384565b6001600160a01b031614610225576040805162461bcd60e51b815260206004820181905260248201527f4f776e61626c653a2063616c6c6572206973206e6f7420746865206f776e6572604482015290519081900360640190fd5b600080546040516001600160a01b03909116907f8be0079c531659141344cd1fd0a4f28419497f9722a3daafe3b4186f6b6457e0908390a3600080546001600160a01b0319169055565b6102776107ea565b6001600160a01b0316610288610384565b6001600160a01b0316146102e3576040805162461bcd60e51b815260206004820181905260248201527f4f776e61626c653a2063616c6c6572206973206e6f7420746865206f776e6572604482015290519081900360640190fd5b60646102ef83836107ee565b111561032c5760405162461bcd60e51b815260040180806020018281038252603b815260200180610a28603b913960400191505060405180910390fd5b600180546001600160a01b03199081166001600160a01b03978816178255600280548216968816969096179095556003805490951693909516929092179092556004919091556005556006805460ff19169091179055565b6000546001600160a01b031690565b60065460ff166103d45760405162461bcd60e51b81526004018080602001828103825260448152602001806109956044913960600191505060405180910390fd5b600154604080516370a0823160e01b815230600482015290516000926001600160a01b0316916370a08231916024808301926020929190829003018186803b15801561041f57600080fd5b505afa158015610433573d6000803e3d6000fd5b505050506040513d602081101561044957600080fd5b505190506305f5e10081101561045f57506106c5565b600454600090819081901561054a57600454610488906064906104829087610851565b906108aa565b6001546002546040805163a9059cbb60e01b81526001600160a01b03928316600482015260248101859052905193965091169163a9059cbb916044808201926020929091908290030181600087803b1580156104e357600080fd5b505af11580156104f7573d6000803e3d6000fd5b505050506040513d602081101561050d57600080fd5b505161054a5760405162461bcd60e51b815260040180806020018281038252602e8152602001806109fa602e913960400191505060405180910390fd5b600554156105e457600554610566906064906104829087610851565b60015460408051630852cd8d60e31b81526004810184905290519294506001600160a01b03909116916342966c68916024808201926020929091908290030181600087803b1580156105b757600080fd5b505af11580156105cb573d6000803e3d6000fd5b505050506040513d60208110156105e157600080fd5b50505b6105f8826105f28686610911565b90610911565b905080156106c0576001546003546040805163a9059cbb60e01b81526001600160a01b039283166004820152602481018590529051919092169163a9059cbb9160448083019260209291908290030181600087803b15801561065957600080fd5b505af115801561066d573d6000803e3d6000fd5b505050506040513d602081101561068357600080fd5b50516106c05760405162461bcd60e51b8152600401808060200182810382526038815260200180610a636038913960400191505060405180910390fd5b505050505b565b6001546001600160a01b031681565b6106de6107ea565b6001600160a01b03166106ef610384565b6001600160a01b03161461074a576040805162461bcd60e51b815260206004820181905260248201527f4f776e61626c653a2063616c6c6572206973206e6f7420746865206f776e6572604482015290519081900360640190fd5b6001600160a01b03811661078f5760405162461bcd60e51b815260040180806020018281038252602681526020018061096f6026913960400191505060405180910390fd5b600080546040516001600160a01b03808516939216917f8be0079c531659141344cd1fd0a4f28419497f9722a3daafe3b4186f6b6457e091a3600080546001600160a01b0319166001600160a01b0392909216919091179055565b3390565b600082820183811015610848576040805162461bcd60e51b815260206004820152601b60248201527f536166654d6174683a206164646974696f6e206f766572666c6f770000000000604482015290519081900360640190fd5b90505b92915050565b6000826108605750600061084b565b8282028284828161086d57fe5b04146108485760405162461bcd60e51b81526004018080602001828103825260218152602001806109d96021913960400191505060405180910390fd5b6000808211610900576040805162461bcd60e51b815260206004820152601a60248201527f536166654d6174683a206469766973696f6e206279207a65726f000000000000604482015290519081900360640190fd5b81838161090957fe5b049392505050565b600082821115610968576040805162461bcd60e51b815260206004820152601e60248201527f536166654d6174683a207375627472616374696f6e206f766572666c6f770000604482015290519081900360640190fd5b5090039056fe4f776e61626c653a206e6577206f776e657220697320746865207a65726f20616464726573734665654469737472696275746f723a20466565732063616e6e6f7420626520646973747269627574656420756e74696c204469737472696275746f72207365656465642e536166654d6174683a206d756c7469706c69636174696f6e206f766572666c6f774665654469737472696275746f723a207472616e7366657220746f204c69717569645661756c74206661696c65644665654469737472696275746f723a206c69717569645661756c74202b206275726e50657263656e7461676520696e636f727265637420736574734665654469737472696275746f723a207472616e7366657220746f20746865207365636f6e646172792061646472657373206661696c6564a2646970667358221220d18203bcd6d9736d955bada49fe0190283aedd5a1d36f90eebf0abb683c6d71364736f6c63430007040033",
  "devdoc": {
    "kind": "dev",
    "methods": {
      "owner()": {
        "details": "Returns the address of the current owner."
      },
      "renounceOwnership()": {
        "details": "Leaves the contract without owner. It will not be possible to call `onlyOwner` functions anymore. Can only be called by the current owner. NOTE: Renouncing ownership will leave the contract without an owner, thereby removing any functionality that is only available to the owner."
      },
      "transferOwnership(address)": {
        "details": "Transfers ownership of the contract to a new account (`newOwner`). Can only be called by the current owner."
      }
    },
    "version": 1
  },
  "userdoc": {
    "kind": "user",
    "methods": {},
    "version": 1
  },
  "storageLayout": {
    "storage": [
      {
        "astId": 10,
        "contract": "contracts/FeeDistributor.sol:FeeDistributor",
        "label": "_owner",
        "offset": 0,
        "slot": "0",
        "type": "t_address"
      },
      {
        "astId": 1749,
        "contract": "contracts/FeeDistributor.sol:FeeDistributor",
        "label": "infinity",
        "offset": 0,
        "slot": "1",
        "type": "t_contract(IInfinityProtocol)4419"
      },
      {
        "astId": 1751,
        "contract": "contracts/FeeDistributor.sol:FeeDistributor",
        "label": "recipients",
        "offset": 0,
        "slot": "2",
        "type": "t_struct(FeeRecipient)1747_storage"
      },
      {
        "astId": 1753,
        "contract": "contracts/FeeDistributor.sol:FeeDistributor",
        "label": "initialized",
        "offset": 0,
        "slot": "6",
        "type": "t_bool"
      }
    ],
    "types": {
      "t_address": {
        "encoding": "inplace",
        "label": "address",
        "numberOfBytes": "20"
      },
      "t_bool": {
        "encoding": "inplace",
        "label": "bool",
        "numberOfBytes": "1"
      },
      "t_contract(IInfinityProtocol)4419": {
        "encoding": "inplace",
        "label": "contract IInfinityProtocol",
        "numberOfBytes": "20"
      },
      "t_struct(FeeRecipient)1747_storage": {
        "encoding": "inplace",
        "label": "struct FeeDistributor.FeeRecipient",
        "members": [
          {
            "astId": 1740,
            "contract": "contracts/FeeDistributor.sol:FeeDistributor",
            "label": "liquidVault",
            "offset": 0,
            "slot": "0",
            "type": "t_address"
          },
          {
            "astId": 1742,
            "contract": "contracts/FeeDistributor.sol:FeeDistributor",
            "label": "secondaryAddress",
            "offset": 0,
            "slot": "1",
            "type": "t_address"
          },
          {
            "astId": 1744,
            "contract": "contracts/FeeDistributor.sol:FeeDistributor",
            "label": "liquidVaultShare",
            "offset": 0,
            "slot": "2",
            "type": "t_uint256"
          },
          {
            "astId": 1746,
            "contract": "contracts/FeeDistributor.sol:FeeDistributor",
            "label": "burnPercentage",
            "offset": 0,
            "slot": "3",
            "type": "t_uint256"
          }
        ],
        "numberOfBytes": "128"
      },
      "t_uint256": {
        "encoding": "inplace",
        "label": "uint256",
        "numberOfBytes": "32"
      }
    }
  }
}