{
  "address": "0xe7f1725E7734CE288F8367e1Bb143E90bb3F0512",
  "abi": [
    {
      "anonymous": false,
      "inputs": [
        {
          "indexed": false,
          "internalType": "address",
          "name": "from",
          "type": "address"
        },
        {
          "indexed": false,
          "internalType": "uint256",
          "name": "amount",
          "type": "uint256"
        },
        {
          "indexed": false,
          "internalType": "uint256",
          "name": "percentageAmount",
          "type": "uint256"
        }
      ],
      "name": "EthTransferred",
      "type": "event"
    },
    {
      "anonymous": false,
      "inputs": [
        {
          "indexed": false,
          "internalType": "address",
          "name": "holder",
          "type": "address"
        },
        {
          "indexed": false,
          "internalType": "uint256",
          "name": "amount",
          "type": "uint256"
        },
        {
          "indexed": false,
          "internalType": "uint256",
          "name": "timestamp",
          "type": "uint256"
        },
        {
          "indexed": false,
          "internalType": "uint256",
          "name": "exitFee",
          "type": "uint256"
        },
        {
          "indexed": false,
          "internalType": "bool",
          "name": "claimed",
          "type": "bool"
        }
      ],
      "name": "LPClaimed",
      "type": "event"
    },
    {
      "anonymous": false,
      "inputs": [
        {
          "indexed": false,
          "internalType": "address",
          "name": "holder",
          "type": "address"
        },
        {
          "indexed": false,
          "internalType": "uint256",
          "name": "amount",
          "type": "uint256"
        },
        {
          "indexed": false,
          "internalType": "uint256",
          "name": "eth",
          "type": "uint256"
        },
        {
          "indexed": false,
          "internalType": "uint256",
          "name": "infinityToken",
          "type": "uint256"
        },
        {
          "indexed": false,
          "internalType": "uint256",
          "name": "timestamp",
          "type": "uint256"
        }
      ],
      "name": "LPQueued",
      "type": "event"
    },
    {
      "anonymous": false,
      "inputs": [
        {
          "indexed": true,
          "internalType": "address",
          "name": "previousOwner",
          "type": "address"
        },
        {
          "indexed": true,
          "internalType": "address",
          "name": "newOwner",
          "type": "address"
        }
      ],
      "name": "OwnershipTransferred",
      "type": "event"
    },
    {
      "inputs": [],
      "name": "claimLP",
      "outputs": [],
      "stateMutability": "nonpayable",
      "type": "function"
    },
    {
      "inputs": [],
      "name": "config",
      "outputs": [
        {
          "internalType": "address",
          "name": "infinityToken",
          "type": "address"
        },
        {
          "internalType": "contract IUniswapV2Router02",
          "name": "uniswapRouter",
          "type": "address"
        },
        {
          "internalType": "contract IUniswapV2Pair",
          "name": "tokenPair",
          "type": "address"
        },
        {
          "internalType": "contract IFeeDistributor",
          "name": "feeDistributor",
          "type": "address"
        },
        {
          "internalType": "address",
          "name": "weth",
          "type": "address"
        },
        {
          "internalType": "address payable",
          "name": "feeReceiver",
          "type": "address"
        },
        {
          "internalType": "uint32",
          "name": "stakeDuration",
          "type": "uint32"
        },
        {
          "internalType": "uint8",
          "name": "donationShare",
          "type": "uint8"
        },
        {
          "internalType": "uint8",
          "name": "purchaseFee",
          "type": "uint8"
        }
      ],
      "stateMutability": "view",
      "type": "function"
    },
    {
      "inputs": [],
      "name": "enableLPForceUnlock",
      "outputs": [],
      "stateMutability": "nonpayable",
      "type": "function"
    },
    {
      "inputs": [],
      "name": "forceUnlock",
      "outputs": [
        {
          "internalType": "bool",
          "name": "",
          "type": "bool"
        }
      ],
      "stateMutability": "view",
      "type": "function"
    },
    {
      "inputs": [
        {
          "internalType": "address",
          "name": "holder",
          "type": "address"
        },
        {
          "internalType": "uint256",
          "name": "position",
          "type": "uint256"
        }
      ],
      "name": "getLockedLP",
      "outputs": [
        {
          "internalType": "address",
          "name": "",
          "type": "address"
        },
        {
          "internalType": "uint256",
          "name": "",
          "type": "uint256"
        },
        {
          "internalType": "uint256",
          "name": "",
          "type": "uint256"
        },
        {
          "internalType": "bool",
          "name": "",
          "type": "bool"
        }
      ],
      "stateMutability": "view",
      "type": "function"
    },
    {
      "inputs": [],
      "name": "getStakeDuration",
      "outputs": [
        {
          "internalType": "uint256",
          "name": "",
          "type": "uint256"
        }
      ],
      "stateMutability": "view",
      "type": "function"
    },
    {
      "inputs": [
        {
          "internalType": "address",
          "name": "",
          "type": "address"
        },
        {
          "internalType": "uint256",
          "name": "",
          "type": "uint256"
        }
      ],
      "name": "lockedLP",
      "outputs": [
        {
          "internalType": "address",
          "name": "holder",
          "type": "address"
        },
        {
          "internalType": "uint256",
          "name": "amount",
          "type": "uint256"
        },
        {
          "internalType": "uint256",
          "name": "timestamp",
          "type": "uint256"
        },
        {
          "internalType": "bool",
          "name": "claimed",
          "type": "bool"
        }
      ],
      "stateMutability": "view",
      "type": "function"
    },
    {
      "inputs": [
        {
          "internalType": "address",
          "name": "holder",
          "type": "address"
        }
      ],
      "name": "lockedLPLength",
      "outputs": [
        {
          "internalType": "uint256",
          "name": "",
          "type": "uint256"
        }
      ],
      "stateMutability": "view",
      "type": "function"
    },
    {
      "inputs": [],
      "name": "owner",
      "outputs": [
        {
          "internalType": "address",
          "name": "",
          "type": "address"
        }
      ],
      "stateMutability": "view",
      "type": "function"
    },
    {
      "inputs": [],
      "name": "purchaseLP",
      "outputs": [],
      "stateMutability": "payable",
      "type": "function"
    },
    {
      "inputs": [
        {
          "internalType": "address",
          "name": "beneficiary",
          "type": "address"
        }
      ],
      "name": "purchaseLPFor",
      "outputs": [],
      "stateMutability": "payable",
      "type": "function"
    },
    {
      "inputs": [
        {
          "internalType": "address",
          "name": "",
          "type": "address"
        }
      ],
      "name": "queueCounter",
      "outputs": [
        {
          "internalType": "uint256",
          "name": "",
          "type": "uint256"
        }
      ],
      "stateMutability": "view",
      "type": "function"
    },
    {
      "inputs": [],
      "name": "renounceOwnership",
      "outputs": [],
      "stateMutability": "nonpayable",
      "type": "function"
    },
    {
      "inputs": [
        {
          "internalType": "uint32",
          "name": "duration",
          "type": "uint32"
        },
        {
          "internalType": "address",
          "name": "infinityToken",
          "type": "address"
        },
        {
          "internalType": "address",
          "name": "uniswapPair",
          "type": "address"
        },
        {
          "internalType": "address",
          "name": "uniswapRouter",
          "type": "address"
        },
        {
          "internalType": "address",
          "name": "feeDistributor",
          "type": "address"
        },
        {
          "internalType": "address payable",
          "name": "feeReceiver",
          "type": "address"
        },
        {
          "internalType": "uint8",
          "name": "donationShare",
          "type": "uint8"
        },
        {
          "internalType": "uint8",
          "name": "purchaseFee",
          "type": "uint8"
        }
      ],
      "name": "seed",
      "outputs": [],
      "stateMutability": "nonpayable",
      "type": "function"
    },
    {
      "inputs": [
        {
          "internalType": "address payable",
          "name": "feeReceiver",
          "type": "address"
        }
      ],
      "name": "setFeeReceiverAddress",
      "outputs": [],
      "stateMutability": "nonpayable",
      "type": "function"
    },
    {
      "inputs": [
        {
          "internalType": "uint32",
          "name": "duration",
          "type": "uint32"
        },
        {
          "internalType": "uint8",
          "name": "donationShare",
          "type": "uint8"
        },
        {
          "internalType": "uint8",
          "name": "purchaseFee",
          "type": "uint8"
        }
      ],
      "name": "setParameters",
      "outputs": [],
      "stateMutability": "nonpayable",
      "type": "function"
    },
    {
      "inputs": [
        {
          "internalType": "address",
          "name": "newOwner",
          "type": "address"
        }
      ],
      "name": "transferOwnership",
      "outputs": [],
      "stateMutability": "nonpayable",
      "type": "function"
    }
  ],
  "transactionHash": "0x6f8ca60e2fee8e1db0d1bb636cb2e6675ef23eaabb864f0b89713a2d7d423bce",
  "args": [],
  "solcInputHash": "50935558cf5835f525f697d3157617bd",
  "bytecode": "0x608060405234801561001057600080fd5b50600061001b61006a565b600080546001600160a01b0319166001600160a01b0383169081178255604051929350917f8be0079c531659141344cd1fd0a4f28419497f9722a3daafe3b4186f6b6457e0908290a35061006e565b3390565b6117ef8061007d6000396000f3fe6080604052600436106100fe5760003560e01c806387c9082d11610095578063b4a9710111610064578063b4a971011461037c578063bd901bdd146103af578063de44391a146103d5578063dfbcaeb9146103ea578063f2fde38b1461045b576100fe565b806387c9082d146102be5780638da5cb5b146103035780639c4e3148146103345780639f1bfc6c14610367576100fe565b8063715018a6116100d1578063715018a6146101ff57806374d6588b1461021457806379502c551461021c5780637965c96714610295576100fe565b80631a5a3794146101035780631ebaaf66146101465780631faaa66d146101b15780635536998c146101ea575b600080fd5b34801561010f57600080fd5b506101446004803603606081101561012657600080fd5b5063ffffffff8135169060ff6020820135811691604001351661048e565b005b34801561015257600080fd5b5061017f6004803603604081101561016957600080fd5b506001600160a01b0381351690602001356105c8565b604080516001600160a01b03909516855260208501939093528383019190915215156060830152519081900360800190f35b3480156101bd57600080fd5b5061017f600480360360408110156101d457600080fd5b506001600160a01b03813516906020013561065e565b3480156101f657600080fd5b506101446106b1565b34801561020b57600080fd5b50610144610728565b6101446107d4565b34801561022857600080fd5b506102316107df565b604080516001600160a01b039a8b168152988a1660208a01529689168888015294881660608801529287166080870152951660a085015263ffffffff90941660c084015260ff93841660e08401529092166101008201529051908190036101200190f35b3480156102a157600080fd5b506102aa610835565b604080519115158252519081900360200190f35b3480156102ca57600080fd5b506102f1600480360360208110156102e157600080fd5b50356001600160a01b0316610845565b60408051918252519081900360200190f35b34801561030f57600080fd5b50610318610860565b604080516001600160a01b039092168252519081900360200190f35b34801561034057600080fd5b506101446004803603602081101561035757600080fd5b50356001600160a01b031661086f565b34801561037357600080fd5b506102f1610938565b34801561038857600080fd5b506102f16004803603602081101561039f57600080fd5b50356001600160a01b031661096d565b610144600480360360208110156103c557600080fd5b50356001600160a01b031661097f565b3480156103e157600080fd5b50610144611062565b3480156103f657600080fd5b50610144600480360361010081101561040e57600080fd5b5063ffffffff813516906001600160a01b03602082013581169160408101358216916060820135811691608081013582169160a0820135169060ff60c082013581169160e0013516611381565b34801561046757600080fd5b506101446004803603602081101561047e57600080fd5b50356001600160a01b03166114ce565b6104966115d0565b6001600160a01b03166104a7610860565b6001600160a01b0316146104f0576040805162461bcd60e51b8152602060048201819052602482015260008051602061176d833981519152604482015290519081900360640190fd5b60648260ff1611156105335760405162461bcd60e51b815260040180806020018281038252602f815260200180611608602f913960400191505060405180910390fd5b60648160ff1611156105765760405162461bcd60e51b815260040180806020018281038252603381526020018061173a6033913960400191505060405180910390fd5b6006805463ffffffff60a01b1916600160a01b620151809590950263ffffffff16949094029390931760ff60c01b1916600160c01b60ff938416021760ff60c81b1916600160c81b9190921602179055565b6000806000806105d66115d4565b6001600160a01b03871660009081526007602052604090208054879081106105fa57fe5b60009182526020918290206040805160808101825260049390930290910180546001600160a01b03168084526001820154948401859052600282015492840183905260039091015460ff16151560609093018390529a929950975095509350505050565b6007602052816000526040600020818154811061067a57600080fd5b600091825260209091206004909102018054600182015460028301546003909301546001600160a01b039092169450925060ff1684565b6106b96115d0565b6001600160a01b03166106ca610860565b6001600160a01b031614610713576040805162461bcd60e51b8152602060048201819052602482015260008051602061176d833981519152604482015290519081900360640190fd5b6000805460ff60a01b1916600160a01b179055565b6107306115d0565b6001600160a01b0316610741610860565b6001600160a01b03161461078a576040805162461bcd60e51b8152602060048201819052602482015260008051602061176d833981519152604482015290519081900360640190fd5b600080546040516001600160a01b03909116907f8be0079c531659141344cd1fd0a4f28419497f9722a3daafe3b4186f6b6457e0908390a3600080546001600160a01b0319169055565b6107dd3361097f565b565b6001546002546003546004546005546006546001600160a01b03958616959485169493841693928316929182169181169063ffffffff600160a01b8204169060ff600160c01b8204811691600160c81b90041689565b600054600160a01b900460ff1681565b6001600160a01b031660009081526007602052604090205490565b6000546001600160a01b031690565b6108776115d0565b6001600160a01b0316610888610860565b6001600160a01b0316146108d1576040805162461bcd60e51b8152602060048201819052602482015260008051602061176d833981519152604482015290519081900360640190fd5b6001600160a01b0381166109165760405162461bcd60e51b81526004018080602001828103825260298152602001806116df6029913960400191505060405180910390fd5b600680546001600160a01b0319166001600160a01b0392909216919091179055565b60008054600160a01b900460ff1661095f57600654600160a01b900463ffffffff16610962565b60005b63ffffffff16905090565b60086020526000908152604090205481565b600054600160a81b900460ff16156109c85760405162461bcd60e51b81526004018080602001828103825260218152602001806116be6021913960400191505060405180910390fd5b6000805460ff60a81b1916600160a81b17815560048054604080516305dabd6960e51b815290516001600160a01b039092169363bb57ad209382810193919282900301818387803b158015610a1c57600080fd5b505af1158015610a30573d6000803e3d6000fd5b5050505060003411610a735760405162461bcd60e51b815260040180806020018281038252602d81526020018061178d602d913960400191505060405180910390fd5b60065460035460408051630240bc6b60e21b81529051606434600160c81b90950460ff16850204938490039260009283926001600160a01b0390921691630902f1ac91600480820192606092909190829003018186803b158015610ad657600080fd5b505afa158015610aea573d6000803e3d6000fd5b505050506040513d6060811015610b0057600080fd5b5080516020909101516005546001546dffffffffffffffffffffffffffff93841695509290911692506000916001600160a01b0391821691161015610bcc5760025460408051632b58577b60e21b815260048101879052602481018590526044810186905290516001600160a01b039092169163ad615dec91606480820192602092909190829003018186803b158015610b9957600080fd5b505afa158015610bad573d6000803e3d6000fd5b505050506040513d6020811015610bc357600080fd5b50519050610c55565b60025460408051632b58577b60e21b815260048101879052602481018690526044810185905290516001600160a01b039092169163ad615dec91606480820192602092909190829003018186803b158015610c2657600080fd5b505afa158015610c3a573d6000803e3d6000fd5b505050506040513d6020811015610c5057600080fd5b505190505b600154604080516370a0823160e01b815230600482015290516000926001600160a01b0316916370a08231916024808301926020929190829003018186803b158015610ca057600080fd5b505afa158015610cb4573d6000803e3d6000fd5b505050506040513d6020811015610cca57600080fd5b5051905081811015610d0d5760405162461bcd60e51b81526004018080602001828103825260388152602001806116866038913960400191505060405180910390fd5b60055460408051630d0e30db60e41b815290516001600160a01b039092169163d0e30db0918891600482810192600092919082900301818588803b158015610d5457600080fd5b505af1158015610d68573d6000803e3d6000fd5b50506003546005546040805163a9059cbb60e01b81526001600160a01b0393841660048201819052602482018d9052915191965092909116935063a9059cbb925060448083019260209291908290030181600087803b158015610dca57600080fd5b505af1158015610dde573d6000803e3d6000fd5b505050506040513d6020811015610df457600080fd5b50506001546040805163a9059cbb60e01b81526001600160a01b038481166004830152602482018790529151919092169163a9059cbb9160448083019260209291908290030181600087803b158015610e4c57600080fd5b505af1158015610e60573d6000803e3d6000fd5b505050506040513d6020811015610e7657600080fd5b5050600354604080516335313c2160e11b815230600482015290516000926001600160a01b031691636a62784291602480830192602092919082900301818787803b158015610ec457600080fd5b505af1158015610ed8573d6000803e3d6000fd5b505050506040513d6020811015610eee57600080fd5b50516006546040519192506001600160a01b03169089156108fc02908a906000818181858888f19350505050158015610f2b573d6000803e3d6000fd5b506001600160a01b0389811660008181526007602090815260408083208151608080820184528682528185018981524283860181815260608086018a8152875460018082018a55988c529a8a902096516004909b0290960180546001600160a01b0319169a909c16999099178b559151948a019490945551600289015590516003909701805460ff19169715159790971790965581519485529184018690528381018c90529183018890529282019290925290517fe7660232e29d90e682443fb9547e347cb9bf2e0819d4b6c656ad7230d4f100e29160a0908290030190a160408051338152602081018990528082018a905290517f33d1666e046acf93d35357bd3ae33df3095c40a5a5de75819698072d97121d289181900360600190a150506000805460ff60a81b1916905550505050505050565b3360009081526008602090815260408083205460079092529091205481106110d1576040805162461bcd60e51b815260206004820152601e60248201527f4c69717569645661756c743a206e6f7468696e6720746f20636c61696d2e0000604482015290519081900360640190fd5b3360009081526007602052604081208054839081106110ec57fe5b90600052602060002090600402019050611104610938565b816002015442031161115d576040805162461bcd60e51b815260206004820152601d60248201527f4c69717569645661756c743a204c50207374696c6c206c6f636b65642e000000604482015290519081900360640190fd5b336000818152600860209081526040918290206001958601908190558486015460065460038701805460ff19169098179788905584519586529285018190524285850152606460ff600160c01b90940484169091020460608501819052959091161515608084015290519093917feb9f916af767932dafd78f28d270d1975fefe77bcb9d160cc653bf9cfc3599719160a0918190039190910190a16003546040805163a9059cbb60e01b81526000600482018190526024820185905291516001600160a01b039093169263a9059cbb92604480840193602093929083900390910190829087803b15801561125057600080fd5b505af1158015611264573d6000803e3d6000fd5b505050506040513d602081101561127a57600080fd5b50516112b75760405162461bcd60e51b81526004018080602001828103825260328152602001806117086032913960400191505060405180910390fd5b600354825460018401546040805163a9059cbb60e01b81526001600160a01b03938416600482015291859003602483015251919092169163a9059cbb9160448083019260209291908290030181600087803b15801561131557600080fd5b505af1158015611329573d6000803e3d6000fd5b505050506040513d602081101561133f57600080fd5b505161137c5760405162461bcd60e51b81526004018080602001828103825260298152602001806116376029913960400191505060405180910390fd5b505050565b6113896115d0565b6001600160a01b031661139a610860565b6001600160a01b0316146113e3576040805162461bcd60e51b8152602060048201819052602482015260008051602061176d833981519152604482015290519081900360640190fd5b600180546001600160a01b03199081166001600160a01b038a81169190911790925560028054821688841617908190556003805483168a851617905560048054909216878416178255604080516315ab88c960e31b81529051919093169263ad5c46489281810192602092909190829003018186803b15801561146557600080fd5b505afa158015611479573d6000803e3d6000fd5b505050506040513d602081101561148f57600080fd5b5051600580546001600160a01b0319166001600160a01b039092169190911790556114b98361086f565b6114c488838361048e565b5050505050505050565b6114d66115d0565b6001600160a01b03166114e7610860565b6001600160a01b031614611530576040805162461bcd60e51b8152602060048201819052602482015260008051602061176d833981519152604482015290519081900360640190fd5b6001600160a01b0381166115755760405162461bcd60e51b81526004018080602001828103825260268152602001806116606026913960400191505060405180910390fd5b600080546040516001600160a01b03808516939216917f8be0079c531659141344cd1fd0a4f28419497f9722a3daafe3b4186f6b6457e091a3600080546001600160a01b0319166001600160a01b0392909216919091179055565b3390565b604051806080016040528060006001600160a01b031681526020016000815260200160008152602001600015158152509056fe4c69717569645661756c743a20646f6e6174696f6e2073686172652025206265747765656e203020616e64203130304c69717569645661756c743a207472616e73666572206661696c656420696e204c5020636c61696d2e4f776e61626c653a206e6577206f776e657220697320746865207a65726f20616464726573734c69717569645661756c743a20696e73756666696369656e7420494e46494e49545920746f6b656e7320696e204c69717569645661756c744c69717569645661756c743a207265656e7472616e63792076696f6c6174696f6e4c69717569645661756c743a20455448207265636569766572206973207a65726f20616464726573734c69717569645661756c743a20646f6e6174696f6e207472616e73666572206661696c656420696e204c5020636c61696d2e4c69717569645661756c743a207075726368617365206665652073686172652025206265747765656e203020616e64203130304f776e61626c653a2063616c6c6572206973206e6f7420746865206f776e65724c69717569645661756c743a2045544820726571756972656420746f206d696e7420494e46494e495459204c50a2646970667358221220ed8981c7d680570e386bd9dbb5e01636c5c73416dddecb348c99f9258c7a286a64736f6c63430007040033",
  "devdoc": {
    "kind": "dev",
    "methods": {
      "owner()": {
        "details": "Returns the address of the current owner."
      },
      "renounceOwnership()": {
        "details": "Leaves the contract without owner. It will not be possible to call `onlyOwner` functions anymore. Can only be called by the current owner. NOTE: Renouncing ownership will leave the contract without an owner, thereby removing any functionality that is only available to the owner."
      },
      "transferOwnership(address)": {
        "details": "Transfers ownership of the contract to a new account (`newOwner`). Can only be called by the current owner."
      }
    },
    "version": 1
  },
  "userdoc": {
    "events": {
      "EthTransferred(address,uint256,uint256)": {
        "notice": "Emitted when purchaseLP() is called to track ETH amounts "
      },
      "LPClaimed(address,uint256,uint256,uint256,bool)": {
        "notice": "Emitted when claimLP() is called "
      },
      "LPQueued(address,uint256,uint256,uint256,uint256)": {
        "notice": "Emitted when purchaseLP() is called and LP tokens minted "
      }
    },
    "kind": "user",
    "methods": {},
    "version": 1
  },
  "storageLayout": {
    "storage": [
      {
        "astId": 10,
        "contract": "contracts/vaults/LiquidVault.sol:LiquidVault",
        "label": "_owner",
        "offset": 0,
        "slot": "0",
        "type": "t_address"
      },
      {
        "astId": 5821,
        "contract": "contracts/vaults/LiquidVault.sol:LiquidVault",
        "label": "forceUnlock",
        "offset": 20,
        "slot": "0",
        "type": "t_bool"
      },
      {
        "astId": 5823,
        "contract": "contracts/vaults/LiquidVault.sol:LiquidVault",
        "label": "locked",
        "offset": 21,
        "slot": "0",
        "type": "t_bool"
      },
      {
        "astId": 5843,
        "contract": "contracts/vaults/LiquidVault.sol:LiquidVault",
        "label": "config",
        "offset": 0,
        "slot": "1",
        "type": "t_struct(LiquidVaultConfig)5819_storage"
      },
      {
        "astId": 5848,
        "contract": "contracts/vaults/LiquidVault.sol:LiquidVault",
        "label": "lockedLP",
        "offset": 0,
        "slot": "7",
        "type": "t_mapping(t_address,t_array(t_struct(LPbatch)5800_storage)dyn_storage)"
      },
      {
        "astId": 5852,
        "contract": "contracts/vaults/LiquidVault.sol:LiquidVault",
        "label": "queueCounter",
        "offset": 0,
        "slot": "8",
        "type": "t_mapping(t_address,t_uint256)"
      }
    ],
    "types": {
      "t_address": {
        "encoding": "inplace",
        "label": "address",
        "numberOfBytes": "20"
      },
      "t_address_payable": {
        "encoding": "inplace",
        "label": "address payable",
        "numberOfBytes": "20"
      },
      "t_array(t_struct(LPbatch)5800_storage)dyn_storage": {
        "base": "t_struct(LPbatch)5800_storage",
        "encoding": "dynamic_array",
        "label": "struct LiquidVault.LPbatch[]",
        "numberOfBytes": "32"
      },
      "t_bool": {
        "encoding": "inplace",
        "label": "bool",
        "numberOfBytes": "1"
      },
      "t_contract(IFeeDistributor)4407": {
        "encoding": "inplace",
        "label": "contract IFeeDistributor",
        "numberOfBytes": "20"
      },
      "t_contract(IUniswapV2Pair)1205": {
        "encoding": "inplace",
        "label": "contract IUniswapV2Pair",
        "numberOfBytes": "20"
      },
      "t_contract(IUniswapV2Router02)1601": {
        "encoding": "inplace",
        "label": "contract IUniswapV2Router02",
        "numberOfBytes": "20"
      },
      "t_mapping(t_address,t_array(t_struct(LPbatch)5800_storage)dyn_storage)": {
        "encoding": "mapping",
        "key": "t_address",
        "label": "mapping(address => struct LiquidVault.LPbatch[])",
        "numberOfBytes": "32",
        "value": "t_array(t_struct(LPbatch)5800_storage)dyn_storage"
      },
      "t_mapping(t_address,t_uint256)": {
        "encoding": "mapping",
        "key": "t_address",
        "label": "mapping(address => uint256)",
        "numberOfBytes": "32",
        "value": "t_uint256"
      },
      "t_struct(LPbatch)5800_storage": {
        "encoding": "inplace",
        "label": "struct LiquidVault.LPbatch",
        "members": [
          {
            "astId": 5793,
            "contract": "contracts/vaults/LiquidVault.sol:LiquidVault",
            "label": "holder",
            "offset": 0,
            "slot": "0",
            "type": "t_address"
          },
          {
            "astId": 5795,
            "contract": "contracts/vaults/LiquidVault.sol:LiquidVault",
            "label": "amount",
            "offset": 0,
            "slot": "1",
            "type": "t_uint256"
          },
          {
            "astId": 5797,
            "contract": "contracts/vaults/LiquidVault.sol:LiquidVault",
            "label": "timestamp",
            "offset": 0,
            "slot": "2",
            "type": "t_uint256"
          },
          {
            "astId": 5799,
            "contract": "contracts/vaults/LiquidVault.sol:LiquidVault",
            "label": "claimed",
            "offset": 0,
            "slot": "3",
            "type": "t_bool"
          }
        ],
        "numberOfBytes": "128"
      },
      "t_struct(LiquidVaultConfig)5819_storage": {
        "encoding": "inplace",
        "label": "struct LiquidVault.LiquidVaultConfig",
        "members": [
          {
            "astId": 5802,
            "contract": "contracts/vaults/LiquidVault.sol:LiquidVault",
            "label": "infinityToken",
            "offset": 0,
            "slot": "0",
            "type": "t_address"
          },
          {
            "astId": 5804,
            "contract": "contracts/vaults/LiquidVault.sol:LiquidVault",
            "label": "uniswapRouter",
            "offset": 0,
            "slot": "1",
            "type": "t_contract(IUniswapV2Router02)1601"
          },
          {
            "astId": 5806,
            "contract": "contracts/vaults/LiquidVault.sol:LiquidVault",
            "label": "tokenPair",
            "offset": 0,
            "slot": "2",
            "type": "t_contract(IUniswapV2Pair)1205"
          },
          {
            "astId": 5808,
            "contract": "contracts/vaults/LiquidVault.sol:LiquidVault",
            "label": "feeDistributor",
            "offset": 0,
            "slot": "3",
            "type": "t_contract(IFeeDistributor)4407"
          },
          {
            "astId": 5810,
            "contract": "contracts/vaults/LiquidVault.sol:LiquidVault",
            "label": "weth",
            "offset": 0,
            "slot": "4",
            "type": "t_address"
          },
          {
            "astId": 5812,
            "contract": "contracts/vaults/LiquidVault.sol:LiquidVault",
            "label": "feeReceiver",
            "offset": 0,
            "slot": "5",
            "type": "t_address_payable"
          },
          {
            "astId": 5814,
            "contract": "contracts/vaults/LiquidVault.sol:LiquidVault",
            "label": "stakeDuration",
            "offset": 20,
            "slot": "5",
            "type": "t_uint32"
          },
          {
            "astId": 5816,
            "contract": "contracts/vaults/LiquidVault.sol:LiquidVault",
            "label": "donationShare",
            "offset": 24,
            "slot": "5",
            "type": "t_uint8"
          },
          {
            "astId": 5818,
            "contract": "contracts/vaults/LiquidVault.sol:LiquidVault",
            "label": "purchaseFee",
            "offset": 25,
            "slot": "5",
            "type": "t_uint8"
          }
        ],
        "numberOfBytes": "192"
      },
      "t_uint256": {
        "encoding": "inplace",
        "label": "uint256",
        "numberOfBytes": "32"
      },
      "t_uint32": {
        "encoding": "inplace",
        "label": "uint32",
        "numberOfBytes": "4"
      },
      "t_uint8": {
        "encoding": "inplace",
        "label": "uint8",
        "numberOfBytes": "1"
      }
    }
  }
}